{
  "_format": "hh-sol-artifact-1",
  "contractName": "Nft3d",
  "sourceName": "contracts/Nft3d.sol",
  "abi": [
    {
      "inputs": [
        {
          "internalType": "string",
          "name": "name",
          "type": "string"
        },
        {
          "internalType": "string",
          "name": "symbol",
          "type": "string"
        }
      ],
      "stateMutability": "nonpayable",
      "type": "constructor"
    },
    {
      "anonymous": false,
      "inputs": [
        {
          "indexed": true,
          "internalType": "address",
          "name": "owner",
          "type": "address"
        },
        {
          "indexed": true,
          "internalType": "address",
          "name": "approved",
          "type": "address"
        },
        {
          "indexed": true,
          "internalType": "uint256",
          "name": "tokenId",
          "type": "uint256"
        }
      ],
      "name": "Approval",
      "type": "event"
    },
    {
      "anonymous": false,
      "inputs": [
        {
          "indexed": true,
          "internalType": "address",
          "name": "owner",
          "type": "address"
        },
        {
          "indexed": true,
          "internalType": "address",
          "name": "operator",
          "type": "address"
        },
        {
          "indexed": false,
          "internalType": "bool",
          "name": "approved",
          "type": "bool"
        }
      ],
      "name": "ApprovalForAll",
      "type": "event"
    },
    {
      "anonymous": false,
      "inputs": [
        {
          "indexed": true,
          "internalType": "address",
          "name": "from",
          "type": "address"
        },
        {
          "indexed": true,
          "internalType": "address",
          "name": "to",
          "type": "address"
        },
        {
          "indexed": true,
          "internalType": "uint256",
          "name": "tokenId",
          "type": "uint256"
        }
      ],
      "name": "Transfer",
      "type": "event"
    },
    {
      "inputs": [
        {
          "internalType": "address",
          "name": "to",
          "type": "address"
        },
        {
          "internalType": "uint256",
          "name": "tokenId",
          "type": "uint256"
        }
      ],
      "name": "approve",
      "outputs": [],
      "stateMutability": "nonpayable",
      "type": "function"
    },
    {
      "inputs": [
        {
          "internalType": "address",
          "name": "owner",
          "type": "address"
        }
      ],
      "name": "balanceOf",
      "outputs": [
        {
          "internalType": "uint256",
          "name": "",
          "type": "uint256"
        }
      ],
      "stateMutability": "view",
      "type": "function"
    },
    {
      "inputs": [
        {
          "internalType": "uint256",
          "name": "tokenId",
          "type": "uint256"
        }
      ],
      "name": "getApproved",
      "outputs": [
        {
          "internalType": "address",
          "name": "",
          "type": "address"
        }
      ],
      "stateMutability": "view",
      "type": "function"
    },
    {
      "inputs": [
        {
          "internalType": "address",
          "name": "",
          "type": "address"
        }
      ],
      "name": "hasNft3d",
      "outputs": [
        {
          "internalType": "bool",
          "name": "",
          "type": "bool"
        }
      ],
      "stateMutability": "view",
      "type": "function"
    },
    {
      "inputs": [
        {
          "internalType": "address",
          "name": "owner",
          "type": "address"
        },
        {
          "internalType": "address",
          "name": "operator",
          "type": "address"
        }
      ],
      "name": "isApprovedForAll",
      "outputs": [
        {
          "internalType": "bool",
          "name": "",
          "type": "bool"
        }
      ],
      "stateMutability": "view",
      "type": "function"
    },
    {
      "inputs": [
        {
          "internalType": "string",
          "name": "_tokenURI",
          "type": "string"
        }
      ],
      "name": "mint",
      "outputs": [],
      "stateMutability": "nonpayable",
      "type": "function"
    },
    {
      "inputs": [],
      "name": "name",
      "outputs": [
        {
          "internalType": "string",
          "name": "",
          "type": "string"
        }
      ],
      "stateMutability": "view",
      "type": "function"
    },
    {
      "inputs": [
        {
          "internalType": "uint256",
          "name": "tokenId",
          "type": "uint256"
        }
      ],
      "name": "ownerOf",
      "outputs": [
        {
          "internalType": "address",
          "name": "",
          "type": "address"
        }
      ],
      "stateMutability": "view",
      "type": "function"
    },
    {
      "inputs": [
        {
          "internalType": "address",
          "name": "from",
          "type": "address"
        },
        {
          "internalType": "address",
          "name": "to",
          "type": "address"
        },
        {
          "internalType": "uint256",
          "name": "tokenId",
          "type": "uint256"
        }
      ],
      "name": "safeTransferFrom",
      "outputs": [],
      "stateMutability": "nonpayable",
      "type": "function"
    },
    {
      "inputs": [
        {
          "internalType": "address",
          "name": "from",
          "type": "address"
        },
        {
          "internalType": "address",
          "name": "to",
          "type": "address"
        },
        {
          "internalType": "uint256",
          "name": "tokenId",
          "type": "uint256"
        },
        {
          "internalType": "bytes",
          "name": "data",
          "type": "bytes"
        }
      ],
      "name": "safeTransferFrom",
      "outputs": [],
      "stateMutability": "nonpayable",
      "type": "function"
    },
    {
      "inputs": [
        {
          "internalType": "address",
          "name": "operator",
          "type": "address"
        },
        {
          "internalType": "bool",
          "name": "approved",
          "type": "bool"
        }
      ],
      "name": "setApprovalForAll",
      "outputs": [],
      "stateMutability": "nonpayable",
      "type": "function"
    },
    {
      "inputs": [
        {
          "internalType": "bytes4",
          "name": "interfaceId",
          "type": "bytes4"
        }
      ],
      "name": "supportsInterface",
      "outputs": [
        {
          "internalType": "bool",
          "name": "",
          "type": "bool"
        }
      ],
      "stateMutability": "view",
      "type": "function"
    },
    {
      "inputs": [],
      "name": "symbol",
      "outputs": [
        {
          "internalType": "string",
          "name": "",
          "type": "string"
        }
      ],
      "stateMutability": "view",
      "type": "function"
    },
    {
      "inputs": [],
      "name": "tokenCounter",
      "outputs": [
        {
          "internalType": "uint256",
          "name": "",
          "type": "uint256"
        }
      ],
      "stateMutability": "view",
      "type": "function"
    },
    {
      "inputs": [
        {
          "internalType": "uint256",
          "name": "_tokenId",
          "type": "uint256"
        }
      ],
      "name": "tokenURI",
      "outputs": [
        {
          "internalType": "string",
          "name": "",
          "type": "string"
        }
      ],
      "stateMutability": "view",
      "type": "function"
    },
    {
      "inputs": [
        {
          "internalType": "address",
          "name": "from",
          "type": "address"
        },
        {
          "internalType": "address",
          "name": "to",
          "type": "address"
        },
        {
          "internalType": "uint256",
          "name": "tokenId",
          "type": "uint256"
        }
      ],
      "name": "transferFrom",
      "outputs": [],
      "stateMutability": "nonpayable",
      "type": "function"
    }
  ],
  "bytecode": "0x60806040523480156200001157600080fd5b5060405162002d8f38038062002d8f833981810160405281019062000037919062000202565b818181600090816200004a9190620004d2565b5080600190816200005c9190620004d2565b50505060006006819055505050620005b9565b6000604051905090565b600080fd5b600080fd5b600080fd5b600080fd5b6000601f19601f8301169050919050565b7f4e487b7100000000000000000000000000000000000000000000000000000000600052604160045260246000fd5b620000d8826200008d565b810181811067ffffffffffffffff82111715620000fa57620000f96200009e565b5b80604052505050565b60006200010f6200006f565b90506200011d8282620000cd565b919050565b600067ffffffffffffffff82111562000140576200013f6200009e565b5b6200014b826200008d565b9050602081019050919050565b60005b83811015620001785780820151818401526020810190506200015b565b60008484015250505050565b60006200019b620001958462000122565b62000103565b905082815260208101848484011115620001ba57620001b962000088565b5b620001c784828562000158565b509392505050565b600082601f830112620001e757620001e662000083565b5b8151620001f984826020860162000184565b91505092915050565b600080604083850312156200021c576200021b62000079565b5b600083015167ffffffffffffffff8111156200023d576200023c6200007e565b5b6200024b85828601620001cf565b925050602083015167ffffffffffffffff8111156200026f576200026e6200007e565b5b6200027d85828601620001cf565b9150509250929050565b600081519050919050565b7f4e487b7100000000000000000000000000000000000000000000000000000000600052602260045260246000fd5b60006002820490506001821680620002da57607f821691505b602082108103620002f057620002ef62000292565b5b50919050565b60008190508160005260206000209050919050565b60006020601f8301049050919050565b600082821b905092915050565b6000600883026200035a7fffffffffffffffffffffffffffffffffffffffffffffffffffffffffffffffff826200031b565b6200036686836200031b565b95508019841693508086168417925050509392505050565b6000819050919050565b6000819050919050565b6000620003b3620003ad620003a7846200037e565b62000388565b6200037e565b9050919050565b6000819050919050565b620003cf8362000392565b620003e7620003de82620003ba565b84845462000328565b825550505050565b600090565b620003fe620003ef565b6200040b818484620003c4565b505050565b5b81811015620004335762000427600082620003f4565b60018101905062000411565b5050565b601f82111562000482576200044c81620002f6565b62000457846200030b565b8101602085101562000467578190505b6200047f62000476856200030b565b83018262000410565b50505b505050565b600082821c905092915050565b6000620004a76000198460080262000487565b1980831691505092915050565b6000620004c2838362000494565b9150826002028217905092915050565b620004dd8262000287565b67ffffffffffffffff811115620004f957620004f86200009e565b5b620005058254620002c1565b6200051282828562000437565b600060209050601f8311600181146200054a576000841562000535578287015190505b620005418582620004b4565b865550620005b1565b601f1984166200055a86620002f6565b60005b8281101562000584578489015182556001820191506020850194506020810190506200055d565b86831015620005a45784890151620005a0601f89168262000494565b8355505b6001600288020188555050505b505050505050565b6127c680620005c96000396000f3fe608060405234801561001057600080fd5b50600436106101005760003560e01c806395d89b4111610097578063c87b56dd11610066578063c87b56dd146102bd578063d082e381146102ed578063d85d3d271461030b578063e985e9c51461032757610100565b806395d89b4114610237578063a22cb46514610255578063a68e0d1214610271578063b88d4fde146102a157610100565b806323b872dd116100d357806323b872dd1461019f57806342842e0e146101bb5780636352211e146101d757806370a082311461020757610100565b806301ffc9a71461010557806306fdde0314610135578063081812fc14610153578063095ea7b314610183575b600080fd5b61011f600480360381019061011a9190611678565b610357565b60405161012c91906116c0565b60405180910390f35b61013d610439565b60405161014a919061176b565b60405180910390f35b61016d600480360381019061016891906117c3565b6104cb565b60405161017a9190611831565b60405180910390f35b61019d60048036038101906101989190611878565b610511565b005b6101b960048036038101906101b491906118b8565b610628565b005b6101d560048036038101906101d091906118b8565b610688565b005b6101f160048036038101906101ec91906117c3565b6106a8565b6040516101fe9190611831565b60405180910390f35b610221600480360381019061021c919061190b565b610759565b60405161022e9190611947565b60405180910390f35b61023f610810565b60405161024c919061176b565b60405180910390f35b61026f600480360381019061026a919061198e565b6108a2565b005b61028b6004803603810190610286919061190b565b6108b8565b60405161029891906116c0565b60405180910390f35b6102bb60048036038101906102b69190611b03565b6108d8565b005b6102d760048036038101906102d291906117c3565b61093a565b6040516102e4919061176b565b60405180910390f35b6102f5610a27565b6040516103029190611947565b60405180910390f35b61032560048036038101906103209190611c27565b610a2d565b005b610341600480360381019061033c9190611c70565b610a60565b60405161034e91906116c0565b60405180910390f35b60007f80ac58cd000000000000000000000000000000000000000000000000000000007bffffffffffffffffffffffffffffffffffffffffffffffffffffffff1916827bffffffffffffffffffffffffffffffffffffffffffffffffffffffff1916148061042257507f5b5e139f000000000000000000000000000000000000000000000000000000007bffffffffffffffffffffffffffffffffffffffffffffffffffffffff1916827bffffffffffffffffffffffffffffffffffffffffffffffffffffffff1916145b80610432575061043182610af4565b5b9050919050565b60606000805461044890611cdf565b80601f016020809104026020016040519081016040528092919081815260200182805461047490611cdf565b80156104c15780601f10610496576101008083540402835291602001916104c1565b820191906000526020600020905b8154815290600101906020018083116104a457829003601f168201915b5050505050905090565b60006104d682610b5e565b6004600083815260200190815260200160002060009054906101000a900473ffffffffffffffffffffffffffffffffffffffff169050919050565b600061051c826106a8565b90508073ffffffffffffffffffffffffffffffffffffffff168373ffffffffffffffffffffffffffffffffffffffff160361058c576040517f08c379a000000000000000000000000000000000000000000000000000000000815260040161058390611d82565b60405180910390fd5b8073ffffffffffffffffffffffffffffffffffffffff166105ab610ba9565b73ffffffffffffffffffffffffffffffffffffffff1614806105da57506105d9816105d4610ba9565b610a60565b5b610619576040517f08c379a000000000000000000000000000000000000000000000000000000000815260040161061090611e14565b60405180910390fd5b6106238383610bb1565b505050565b610639610633610ba9565b82610c6a565b610678576040517f08c379a000000000000000000000000000000000000000000000000000000000815260040161066f90611ea6565b60405180910390fd5b610683838383610cff565b505050565b6106a3838383604051806020016040528060008152506108d8565b505050565b6000806002600084815260200190815260200160002060009054906101000a900473ffffffffffffffffffffffffffffffffffffffff169050600073ffffffffffffffffffffffffffffffffffffffff168173ffffffffffffffffffffffffffffffffffffffff1603610750576040517f08c379a000000000000000000000000000000000000000000000000000000000815260040161074790611f12565b60405180910390fd5b80915050919050565b60008073ffffffffffffffffffffffffffffffffffffffff168273ffffffffffffffffffffffffffffffffffffffff16036107c9576040517f08c379a00000000000000000000000000000000000000000000000000000000081526004016107c090611fa4565b60405180910390fd5b600360008373ffffffffffffffffffffffffffffffffffffffff1673ffffffffffffffffffffffffffffffffffffffff168152602001908152602001600020549050919050565b60606001805461081f90611cdf565b80601f016020809104026020016040519081016040528092919081815260200182805461084b90611cdf565b80156108985780601f1061086d57610100808354040283529160200191610898565b820191906000526020600020905b81548152906001019060200180831161087b57829003601f168201915b5050505050905090565b6108b46108ad610ba9565b8383610f65565b5050565b60086020528060005260406000206000915054906101000a900460ff1681565b6108e96108e3610ba9565b83610c6a565b610928576040517f08c379a000000000000000000000000000000000000000000000000000000000815260040161091f90611ea6565b60405180910390fd5b610934848484846110d1565b50505050565b60606109458261112d565b610984576040517f08c379a000000000000000000000000000000000000000000000000000000000815260040161097b90612036565b60405180910390fd5b6007600083815260200190815260200160002080546109a290611cdf565b80601f01602080910402602001604051908101604052809291908181526020018280546109ce90611cdf565b8015610a1b5780601f106109f057610100808354040283529160200191610a1b565b820191906000526020600020905b8154815290600101906020018083116109fe57829003601f168201915b50505050509050919050565b60065481565b610a3933600654611199565b610a45600654826111b7565b60066000815480929190610a5890612085565b919050555050565b6000600560008473ffffffffffffffffffffffffffffffffffffffff1673ffffffffffffffffffffffffffffffffffffffff16815260200190815260200160002060008373ffffffffffffffffffffffffffffffffffffffff1673ffffffffffffffffffffffffffffffffffffffff16815260200190815260200160002060009054906101000a900460ff16905092915050565b60007f01ffc9a7000000000000000000000000000000000000000000000000000000007bffffffffffffffffffffffffffffffffffffffffffffffffffffffff1916827bffffffffffffffffffffffffffffffffffffffffffffffffffffffff1916149050919050565b610b678161112d565b610ba6576040517f08c379a0000000000000000000000000000000000000000000000000000000008152600401610b9d90611f12565b60405180910390fd5b50565b600033905090565b816004600083815260200190815260200160002060006101000a81548173ffffffffffffffffffffffffffffffffffffffff021916908373ffffffffffffffffffffffffffffffffffffffff160217905550808273ffffffffffffffffffffffffffffffffffffffff16610c24836106a8565b73ffffffffffffffffffffffffffffffffffffffff167f8c5be1e5ebec7d5bd14f71427d1e84f3dd0314c0f7b2291e5b200ac8c7c3b92560405160405180910390a45050565b600080610c76836106a8565b90508073ffffffffffffffffffffffffffffffffffffffff168473ffffffffffffffffffffffffffffffffffffffff161480610cb85750610cb78185610a60565b5b80610cf657508373ffffffffffffffffffffffffffffffffffffffff16610cde846104cb565b73ffffffffffffffffffffffffffffffffffffffff16145b91505092915050565b8273ffffffffffffffffffffffffffffffffffffffff16610d1f826106a8565b73ffffffffffffffffffffffffffffffffffffffff1614610d75576040517f08c379a0000000000000000000000000000000000000000000000000000000008152600401610d6c9061213f565b60405180910390fd5b600073ffffffffffffffffffffffffffffffffffffffff168273ffffffffffffffffffffffffffffffffffffffff1603610de4576040517f08c379a0000000000000000000000000000000000000000000000000000000008152600401610ddb906121d1565b60405180910390fd5b610def838383611224565b610dfa600082610bb1565b6001600360008573ffffffffffffffffffffffffffffffffffffffff1673ffffffffffffffffffffffffffffffffffffffff1681526020019081526020016000206000828254610e4a91906121f1565b925050819055506001600360008473ffffffffffffffffffffffffffffffffffffffff1673ffffffffffffffffffffffffffffffffffffffff1681526020019081526020016000206000828254610ea19190612225565b92505081905550816002600083815260200190815260200160002060006101000a81548173ffffffffffffffffffffffffffffffffffffffff021916908373ffffffffffffffffffffffffffffffffffffffff160217905550808273ffffffffffffffffffffffffffffffffffffffff168473ffffffffffffffffffffffffffffffffffffffff167fddf252ad1be2c89b69c2b068fc378daa952ba7f163c4a11628f55a4df523b3ef60405160405180910390a4610f60838383611229565b505050565b8173ffffffffffffffffffffffffffffffffffffffff168373ffffffffffffffffffffffffffffffffffffffff1603610fd3576040517f08c379a0000000000000000000000000000000000000000000000000000000008152600401610fca906122a5565b60405180910390fd5b80600560008573ffffffffffffffffffffffffffffffffffffffff1673ffffffffffffffffffffffffffffffffffffffff16815260200190815260200160002060008473ffffffffffffffffffffffffffffffffffffffff1673ffffffffffffffffffffffffffffffffffffffff16815260200190815260200160002060006101000a81548160ff0219169083151502179055508173ffffffffffffffffffffffffffffffffffffffff168373ffffffffffffffffffffffffffffffffffffffff167f17307eab39ab6107e8899845ad3d59bd9653f200f220920489ca2b5937696c31836040516110c491906116c0565b60405180910390a3505050565b6110dc848484610cff565b6110e88484848461122e565b611127576040517f08c379a000000000000000000000000000000000000000000000000000000000815260040161111e90612337565b60405180910390fd5b50505050565b60008073ffffffffffffffffffffffffffffffffffffffff166002600084815260200190815260200160002060009054906101000a900473ffffffffffffffffffffffffffffffffffffffff1673ffffffffffffffffffffffffffffffffffffffff1614159050919050565b6111b38282604051806020016040528060008152506113b5565b5050565b6111c08261112d565b6111ff576040517f08c379a00000000000000000000000000000000000000000000000000000000081526004016111f690612036565b60405180910390fd5b8060076000848152602001908152602001600020908161121f9190612503565b505050565b505050565b505050565b600061124f8473ffffffffffffffffffffffffffffffffffffffff16611410565b156113a8578373ffffffffffffffffffffffffffffffffffffffff1663150b7a02611278610ba9565b8786866040518563ffffffff1660e01b815260040161129a949392919061262a565b6020604051808303816000875af19250505080156112d657506040513d601f19601f820116820180604052508101906112d3919061268b565b60015b611358573d8060008114611306576040519150601f19603f3d011682016040523d82523d6000602084013e61130b565b606091505b506000815103611350576040517f08c379a000000000000000000000000000000000000000000000000000000000815260040161134790612337565b60405180910390fd5b805181602001fd5b63150b7a0260e01b7bffffffffffffffffffffffffffffffffffffffffffffffffffffffff1916817bffffffffffffffffffffffffffffffffffffffffffffffffffffffff1916149150506113ad565b600190505b949350505050565b6113bf8383611433565b6113cc600084848461122e565b61140b576040517f08c379a000000000000000000000000000000000000000000000000000000000815260040161140290612337565b60405180910390fd5b505050565b6000808273ffffffffffffffffffffffffffffffffffffffff163b119050919050565b600073ffffffffffffffffffffffffffffffffffffffff168273ffffffffffffffffffffffffffffffffffffffff16036114a2576040517f08c379a000000000000000000000000000000000000000000000000000000000815260040161149990612704565b60405180910390fd5b6114ab8161112d565b156114eb576040517f08c379a00000000000000000000000000000000000000000000000000000000081526004016114e290612770565b60405180910390fd5b6114f760008383611224565b6001600360008473ffffffffffffffffffffffffffffffffffffffff1673ffffffffffffffffffffffffffffffffffffffff16815260200190815260200160002060008282546115479190612225565b92505081905550816002600083815260200190815260200160002060006101000a81548173ffffffffffffffffffffffffffffffffffffffff021916908373ffffffffffffffffffffffffffffffffffffffff160217905550808273ffffffffffffffffffffffffffffffffffffffff16600073ffffffffffffffffffffffffffffffffffffffff167fddf252ad1be2c89b69c2b068fc378daa952ba7f163c4a11628f55a4df523b3ef60405160405180910390a461160860008383611229565b5050565b6000604051905090565b600080fd5b600080fd5b60007fffffffff0000000000000000000000000000000000000000000000000000000082169050919050565b61165581611620565b811461166057600080fd5b50565b6000813590506116728161164c565b92915050565b60006020828403121561168e5761168d611616565b5b600061169c84828501611663565b91505092915050565b60008115159050919050565b6116ba816116a5565b82525050565b60006020820190506116d560008301846116b1565b92915050565b600081519050919050565b600082825260208201905092915050565b60005b838110156117155780820151818401526020810190506116fa565b60008484015250505050565b6000601f19601f8301169050919050565b600061173d826116db565b61174781856116e6565b93506117578185602086016116f7565b61176081611721565b840191505092915050565b600060208201905081810360008301526117858184611732565b905092915050565b6000819050919050565b6117a08161178d565b81146117ab57600080fd5b50565b6000813590506117bd81611797565b92915050565b6000602082840312156117d9576117d8611616565b5b60006117e7848285016117ae565b91505092915050565b600073ffffffffffffffffffffffffffffffffffffffff82169050919050565b600061181b826117f0565b9050919050565b61182b81611810565b82525050565b60006020820190506118466000830184611822565b92915050565b61185581611810565b811461186057600080fd5b50565b6000813590506118728161184c565b92915050565b6000806040838503121561188f5761188e611616565b5b600061189d85828601611863565b92505060206118ae858286016117ae565b9150509250929050565b6000806000606084860312156118d1576118d0611616565b5b60006118df86828701611863565b93505060206118f086828701611863565b9250506040611901868287016117ae565b9150509250925092565b60006020828403121561192157611920611616565b5b600061192f84828501611863565b91505092915050565b6119418161178d565b82525050565b600060208201905061195c6000830184611938565b92915050565b61196b816116a5565b811461197657600080fd5b50565b60008135905061198881611962565b92915050565b600080604083850312156119a5576119a4611616565b5b60006119b385828601611863565b92505060206119c485828601611979565b9150509250929050565b600080fd5b600080fd5b7f4e487b7100000000000000000000000000000000000000000000000000000000600052604160045260246000fd5b611a1082611721565b810181811067ffffffffffffffff82111715611a2f57611a2e6119d8565b5b80604052505050565b6000611a4261160c565b9050611a4e8282611a07565b919050565b600067ffffffffffffffff821115611a6e57611a6d6119d8565b5b611a7782611721565b9050602081019050919050565b82818337600083830152505050565b6000611aa6611aa184611a53565b611a38565b905082815260208101848484011115611ac257611ac16119d3565b5b611acd848285611a84565b509392505050565b600082601f830112611aea57611ae96119ce565b5b8135611afa848260208601611a93565b91505092915050565b60008060008060808587031215611b1d57611b1c611616565b5b6000611b2b87828801611863565b9450506020611b3c87828801611863565b9350506040611b4d878288016117ae565b925050606085013567ffffffffffffffff811115611b6e57611b6d61161b565b5b611b7a87828801611ad5565b91505092959194509250565b600067ffffffffffffffff821115611ba157611ba06119d8565b5b611baa82611721565b9050602081019050919050565b6000611bca611bc584611b86565b611a38565b905082815260208101848484011115611be657611be56119d3565b5b611bf1848285611a84565b509392505050565b600082601f830112611c0e57611c0d6119ce565b5b8135611c1e848260208601611bb7565b91505092915050565b600060208284031215611c3d57611c3c611616565b5b600082013567ffffffffffffffff811115611c5b57611c5a61161b565b5b611c6784828501611bf9565b91505092915050565b60008060408385031215611c8757611c86611616565b5b6000611c9585828601611863565b9250506020611ca685828601611863565b9150509250929050565b7f4e487b7100000000000000000000000000000000000000000000000000000000600052602260045260246000fd5b60006002820490506001821680611cf757607f821691505b602082108103611d0a57611d09611cb0565b5b50919050565b7f4552433732313a20617070726f76616c20746f2063757272656e74206f776e6560008201527f7200000000000000000000000000000000000000000000000000000000000000602082015250565b6000611d6c6021836116e6565b9150611d7782611d10565b604082019050919050565b60006020820190508181036000830152611d9b81611d5f565b9050919050565b7f4552433732313a20617070726f76652063616c6c6572206973206e6f7420746f60008201527f6b656e206f776e6572206e6f7220617070726f76656420666f7220616c6c0000602082015250565b6000611dfe603e836116e6565b9150611e0982611da2565b604082019050919050565b60006020820190508181036000830152611e2d81611df1565b9050919050565b7f4552433732313a2063616c6c6572206973206e6f7420746f6b656e206f776e6560008201527f72206e6f7220617070726f766564000000000000000000000000000000000000602082015250565b6000611e90602e836116e6565b9150611e9b82611e34565b604082019050919050565b60006020820190508181036000830152611ebf81611e83565b9050919050565b7f4552433732313a20696e76616c696420746f6b656e2049440000000000000000600082015250565b6000611efc6018836116e6565b9150611f0782611ec6565b602082019050919050565b60006020820190508181036000830152611f2b81611eef565b9050919050565b7f4552433732313a2061646472657373207a65726f206973206e6f74206120766160008201527f6c6964206f776e65720000000000000000000000000000000000000000000000602082015250565b6000611f8e6029836116e6565b9150611f9982611f32565b604082019050919050565b60006020820190508181036000830152611fbd81611f81565b9050919050565b7f4552433732314d657461646174613a2055524920736574206f66206e6f6e657860008201527f697374656e7420746f6b656e0000000000000000000000000000000000000000602082015250565b6000612020602c836116e6565b915061202b82611fc4565b604082019050919050565b6000602082019050818103600083015261204f81612013565b9050919050565b7f4e487b7100000000000000000000000000000000000000000000000000000000600052601160045260246000fd5b60006120908261178d565b91507fffffffffffffffffffffffffffffffffffffffffffffffffffffffffffffffff82036120c2576120c1612056565b5b600182019050919050565b7f4552433732313a207472616e736665722066726f6d20696e636f72726563742060008201527f6f776e6572000000000000000000000000000000000000000000000000000000602082015250565b60006121296025836116e6565b9150612134826120cd565b604082019050919050565b600060208201905081810360008301526121588161211c565b9050919050565b7f4552433732313a207472616e7366657220746f20746865207a65726f2061646460008201527f7265737300000000000000000000000000000000000000000000000000000000602082015250565b60006121bb6024836116e6565b91506121c68261215f565b604082019050919050565b600060208201905081810360008301526121ea816121ae565b9050919050565b60006121fc8261178d565b91506122078361178d565b925082820390508181111561221f5761221e612056565b5b92915050565b60006122308261178d565b915061223b8361178d565b925082820190508082111561225357612252612056565b5b92915050565b7f4552433732313a20617070726f766520746f2063616c6c657200000000000000600082015250565b600061228f6019836116e6565b915061229a82612259565b602082019050919050565b600060208201905081810360008301526122be81612282565b9050919050565b7f4552433732313a207472616e7366657220746f206e6f6e20455243373231526560008201527f63656976657220696d706c656d656e7465720000000000000000000000000000602082015250565b60006123216032836116e6565b915061232c826122c5565b604082019050919050565b6000602082019050818103600083015261235081612314565b9050919050565b60008190508160005260206000209050919050565b60006020601f8301049050919050565b600082821b905092915050565b6000600883026123b97fffffffffffffffffffffffffffffffffffffffffffffffffffffffffffffffff8261237c565b6123c3868361237c565b95508019841693508086168417925050509392505050565b6000819050919050565b60006124006123fb6123f68461178d565b6123db565b61178d565b9050919050565b6000819050919050565b61241a836123e5565b61242e61242682612407565b848454612389565b825550505050565b600090565b612443612436565b61244e818484612411565b505050565b5b818110156124725761246760008261243b565b600181019050612454565b5050565b601f8211156124b75761248881612357565b6124918461236c565b810160208510156124a0578190505b6124b46124ac8561236c565b830182612453565b50505b505050565b600082821c905092915050565b60006124da600019846008026124bc565b1980831691505092915050565b60006124f383836124c9565b9150826002028217905092915050565b61250c826116db565b67ffffffffffffffff811115612525576125246119d8565b5b61252f8254611cdf565b61253a828285612476565b600060209050601f83116001811461256d576000841561255b578287015190505b61256585826124e7565b8655506125cd565b601f19841661257b86612357565b60005b828110156125a35784890151825560018201915060208501945060208101905061257e565b868310156125c057848901516125bc601f8916826124c9565b8355505b6001600288020188555050505b505050505050565b600081519050919050565b600082825260208201905092915050565b60006125fc826125d5565b61260681856125e0565b93506126168185602086016116f7565b61261f81611721565b840191505092915050565b600060808201905061263f6000830187611822565b61264c6020830186611822565b6126596040830185611938565b818103606083015261266b81846125f1565b905095945050505050565b6000815190506126858161164c565b92915050565b6000602082840312156126a1576126a0611616565b5b60006126af84828501612676565b91505092915050565b7f4552433732313a206d696e7420746f20746865207a65726f2061646472657373600082015250565b60006126ee6020836116e6565b91506126f9826126b8565b602082019050919050565b6000602082019050818103600083015261271d816126e1565b9050919050565b7f4552433732313a20746f6b656e20616c7265616479206d696e74656400000000600082015250565b600061275a601c836116e6565b915061276582612724565b602082019050919050565b600060208201905081810360008301526127898161274d565b905091905056fea264697066735822122086f13b1eebdc7147dcbb62dde0917f8e5e839ba06cf312f407d01ff4550cc4d164736f6c63430008110033",
  "linkReferences": {},
  "deployedLinkReferences": {}
}