{
  "_format": "hh-sol-artifact-1",
  "contractName": "Nft3d",
  "sourceName": "contracts/Nft3d.sol",
  "abi": [
    {
      "inputs": [
        {
          "internalType": "string",
          "name": "name",
          "type": "string"
        },
        {
          "internalType": "string",
          "name": "symbol",
          "type": "string"
        }
      ],
      "stateMutability": "nonpayable",
      "type": "constructor"
    },
    {
      "anonymous": false,
      "inputs": [
        {
          "indexed": true,
          "internalType": "address",
          "name": "owner",
          "type": "address"
        },
        {
          "indexed": true,
          "internalType": "address",
          "name": "approved",
          "type": "address"
        },
        {
          "indexed": true,
          "internalType": "uint256",
          "name": "tokenId",
          "type": "uint256"
        }
      ],
      "name": "Approval",
      "type": "event"
    },
    {
      "anonymous": false,
      "inputs": [
        {
          "indexed": true,
          "internalType": "address",
          "name": "owner",
          "type": "address"
        },
        {
          "indexed": true,
          "internalType": "address",
          "name": "operator",
          "type": "address"
        },
        {
          "indexed": false,
          "internalType": "bool",
          "name": "approved",
          "type": "bool"
        }
      ],
      "name": "ApprovalForAll",
      "type": "event"
    },
    {
      "anonymous": false,
      "inputs": [
        {
          "indexed": true,
          "internalType": "address",
          "name": "from",
          "type": "address"
        },
        {
          "indexed": true,
          "internalType": "address",
          "name": "to",
          "type": "address"
        },
        {
          "indexed": true,
          "internalType": "uint256",
          "name": "tokenId",
          "type": "uint256"
        }
      ],
      "name": "Transfer",
      "type": "event"
    },
    {
      "inputs": [
        {
          "internalType": "address",
          "name": "to",
          "type": "address"
        },
        {
          "internalType": "uint256",
          "name": "tokenId",
          "type": "uint256"
        }
      ],
      "name": "approve",
      "outputs": [],
      "stateMutability": "nonpayable",
      "type": "function"
    },
    {
      "inputs": [
        {
          "internalType": "address",
          "name": "owner",
          "type": "address"
        }
      ],
      "name": "balanceOf",
      "outputs": [
        {
          "internalType": "uint256",
          "name": "",
          "type": "uint256"
        }
      ],
      "stateMutability": "view",
      "type": "function"
    },
    {
      "inputs": [
        {
          "internalType": "uint256",
          "name": "tokenId",
          "type": "uint256"
        }
      ],
      "name": "getApproved",
      "outputs": [
        {
          "internalType": "address",
          "name": "",
          "type": "address"
        }
      ],
      "stateMutability": "view",
      "type": "function"
    },
    {
      "inputs": [
        {
          "internalType": "address",
          "name": "owner",
          "type": "address"
        },
        {
          "internalType": "address",
          "name": "operator",
          "type": "address"
        }
      ],
      "name": "isApprovedForAll",
      "outputs": [
        {
          "internalType": "bool",
          "name": "",
          "type": "bool"
        }
      ],
      "stateMutability": "view",
      "type": "function"
    },
    {
      "inputs": [
        {
          "internalType": "string",
          "name": "_tokenURI",
          "type": "string"
        }
      ],
      "name": "mint",
      "outputs": [],
      "stateMutability": "nonpayable",
      "type": "function"
    },
    {
      "inputs": [],
      "name": "name",
      "outputs": [
        {
          "internalType": "string",
          "name": "",
          "type": "string"
        }
      ],
      "stateMutability": "view",
      "type": "function"
    },
    {
      "inputs": [
        {
          "internalType": "uint256",
          "name": "tokenId",
          "type": "uint256"
        }
      ],
      "name": "ownerOf",
      "outputs": [
        {
          "internalType": "address",
          "name": "",
          "type": "address"
        }
      ],
      "stateMutability": "view",
      "type": "function"
    },
    {
      "inputs": [
        {
          "internalType": "address",
          "name": "from",
          "type": "address"
        },
        {
          "internalType": "address",
          "name": "to",
          "type": "address"
        },
        {
          "internalType": "uint256",
          "name": "tokenId",
          "type": "uint256"
        }
      ],
      "name": "safeTransferFrom",
      "outputs": [],
      "stateMutability": "nonpayable",
      "type": "function"
    },
    {
      "inputs": [
        {
          "internalType": "address",
          "name": "from",
          "type": "address"
        },
        {
          "internalType": "address",
          "name": "to",
          "type": "address"
        },
        {
          "internalType": "uint256",
          "name": "tokenId",
          "type": "uint256"
        },
        {
          "internalType": "bytes",
          "name": "data",
          "type": "bytes"
        }
      ],
      "name": "safeTransferFrom",
      "outputs": [],
      "stateMutability": "nonpayable",
      "type": "function"
    },
    {
      "inputs": [
        {
          "internalType": "address",
          "name": "operator",
          "type": "address"
        },
        {
          "internalType": "bool",
          "name": "approved",
          "type": "bool"
        }
      ],
      "name": "setApprovalForAll",
      "outputs": [],
      "stateMutability": "nonpayable",
      "type": "function"
    },
    {
      "inputs": [
        {
          "internalType": "bytes4",
          "name": "interfaceId",
          "type": "bytes4"
        }
      ],
      "name": "supportsInterface",
      "outputs": [
        {
          "internalType": "bool",
          "name": "",
          "type": "bool"
        }
      ],
      "stateMutability": "view",
      "type": "function"
    },
    {
      "inputs": [],
      "name": "symbol",
      "outputs": [
        {
          "internalType": "string",
          "name": "",
          "type": "string"
        }
      ],
      "stateMutability": "view",
      "type": "function"
    },
    {
      "inputs": [],
      "name": "tokenCounter",
      "outputs": [
        {
          "internalType": "uint256",
          "name": "",
          "type": "uint256"
        }
      ],
      "stateMutability": "view",
      "type": "function"
    },
    {
      "inputs": [
        {
          "internalType": "uint256",
          "name": "_tokenId",
          "type": "uint256"
        }
      ],
      "name": "tokenURI",
      "outputs": [
        {
          "internalType": "string",
          "name": "",
          "type": "string"
        }
      ],
      "stateMutability": "view",
      "type": "function"
    },
    {
      "inputs": [
        {
          "internalType": "address",
          "name": "from",
          "type": "address"
        },
        {
          "internalType": "address",
          "name": "to",
          "type": "address"
        },
        {
          "internalType": "uint256",
          "name": "tokenId",
          "type": "uint256"
        }
      ],
      "name": "transferFrom",
      "outputs": [],
      "stateMutability": "nonpayable",
      "type": "function"
    }
  ],
  "bytecode": "0x60806040523480156200001157600080fd5b5060405162002d3438038062002d34833981810160405281019062000037919062000202565b818181600090816200004a9190620004d2565b5080600190816200005c9190620004d2565b50505060006006819055505050620005b9565b6000604051905090565b600080fd5b600080fd5b600080fd5b600080fd5b6000601f19601f8301169050919050565b7f4e487b7100000000000000000000000000000000000000000000000000000000600052604160045260246000fd5b620000d8826200008d565b810181811067ffffffffffffffff82111715620000fa57620000f96200009e565b5b80604052505050565b60006200010f6200006f565b90506200011d8282620000cd565b919050565b600067ffffffffffffffff82111562000140576200013f6200009e565b5b6200014b826200008d565b9050602081019050919050565b60005b83811015620001785780820151818401526020810190506200015b565b60008484015250505050565b60006200019b620001958462000122565b62000103565b905082815260208101848484011115620001ba57620001b962000088565b5b620001c784828562000158565b509392505050565b600082601f830112620001e757620001e662000083565b5b8151620001f984826020860162000184565b91505092915050565b600080604083850312156200021c576200021b62000079565b5b600083015167ffffffffffffffff8111156200023d576200023c6200007e565b5b6200024b85828601620001cf565b925050602083015167ffffffffffffffff8111156200026f576200026e6200007e565b5b6200027d85828601620001cf565b9150509250929050565b600081519050919050565b7f4e487b7100000000000000000000000000000000000000000000000000000000600052602260045260246000fd5b60006002820490506001821680620002da57607f821691505b602082108103620002f057620002ef62000292565b5b50919050565b60008190508160005260206000209050919050565b60006020601f8301049050919050565b600082821b905092915050565b6000600883026200035a7fffffffffffffffffffffffffffffffffffffffffffffffffffffffffffffffff826200031b565b6200036686836200031b565b95508019841693508086168417925050509392505050565b6000819050919050565b6000819050919050565b6000620003b3620003ad620003a7846200037e565b62000388565b6200037e565b9050919050565b6000819050919050565b620003cf8362000392565b620003e7620003de82620003ba565b84845462000328565b825550505050565b600090565b620003fe620003ef565b6200040b818484620003c4565b505050565b5b81811015620004335762000427600082620003f4565b60018101905062000411565b5050565b601f82111562000482576200044c81620002f6565b62000457846200030b565b8101602085101562000467578190505b6200047f62000476856200030b565b83018262000410565b50505b505050565b600082821c905092915050565b6000620004a76000198460080262000487565b1980831691505092915050565b6000620004c2838362000494565b9150826002028217905092915050565b620004dd8262000287565b67ffffffffffffffff811115620004f957620004f86200009e565b5b620005058254620002c1565b6200051282828562000437565b600060209050601f8311600181146200054a576000841562000535578287015190505b620005418582620004b4565b865550620005b1565b601f1984166200055a86620002f6565b60005b8281101562000584578489015182556001820191506020850194506020810190506200055d565b86831015620005a45784890151620005a0601f89168262000494565b8355505b6001600288020188555050505b505050505050565b61276b80620005c96000396000f3fe608060405234801561001057600080fd5b50600436106100f55760003560e01c806370a0823111610097578063c87b56dd11610066578063c87b56dd14610282578063d082e381146102b2578063d85d3d27146102d0578063e985e9c5146102ec576100f5565b806370a08231146101fc57806395d89b411461022c578063a22cb4651461024a578063b88d4fde14610266576100f5565b8063095ea7b3116100d3578063095ea7b31461017857806323b872dd1461019457806342842e0e146101b05780636352211e146101cc576100f5565b806301ffc9a7146100fa57806306fdde031461012a578063081812fc14610148575b600080fd5b610114600480360381019061010f919061161d565b61031c565b6040516101219190611665565b60405180910390f35b6101326103fe565b60405161013f9190611710565b60405180910390f35b610162600480360381019061015d9190611768565b610490565b60405161016f91906117d6565b60405180910390f35b610192600480360381019061018d919061181d565b6104d6565b005b6101ae60048036038101906101a9919061185d565b6105ed565b005b6101ca60048036038101906101c5919061185d565b61064d565b005b6101e660048036038101906101e19190611768565b61066d565b6040516101f391906117d6565b60405180910390f35b610216600480360381019061021191906118b0565b61071e565b60405161022391906118ec565b60405180910390f35b6102346107d5565b6040516102419190611710565b60405180910390f35b610264600480360381019061025f9190611933565b610867565b005b610280600480360381019061027b9190611aa8565b61087d565b005b61029c60048036038101906102979190611768565b6108df565b6040516102a99190611710565b60405180910390f35b6102ba6109cc565b6040516102c791906118ec565b60405180910390f35b6102ea60048036038101906102e59190611bcc565b6109d2565b005b61030660048036038101906103019190611c15565b610a05565b6040516103139190611665565b60405180910390f35b60007f80ac58cd000000000000000000000000000000000000000000000000000000007bffffffffffffffffffffffffffffffffffffffffffffffffffffffff1916827bffffffffffffffffffffffffffffffffffffffffffffffffffffffff191614806103e757507f5b5e139f000000000000000000000000000000000000000000000000000000007bffffffffffffffffffffffffffffffffffffffffffffffffffffffff1916827bffffffffffffffffffffffffffffffffffffffffffffffffffffffff1916145b806103f757506103f682610a99565b5b9050919050565b60606000805461040d90611c84565b80601f016020809104026020016040519081016040528092919081815260200182805461043990611c84565b80156104865780601f1061045b57610100808354040283529160200191610486565b820191906000526020600020905b81548152906001019060200180831161046957829003601f168201915b5050505050905090565b600061049b82610b03565b6004600083815260200190815260200160002060009054906101000a900473ffffffffffffffffffffffffffffffffffffffff169050919050565b60006104e18261066d565b90508073ffffffffffffffffffffffffffffffffffffffff168373ffffffffffffffffffffffffffffffffffffffff1603610551576040517f08c379a000000000000000000000000000000000000000000000000000000000815260040161054890611d27565b60405180910390fd5b8073ffffffffffffffffffffffffffffffffffffffff16610570610b4e565b73ffffffffffffffffffffffffffffffffffffffff16148061059f575061059e81610599610b4e565b610a05565b5b6105de576040517f08c379a00000000000000000000000000000000000000000000000000000000081526004016105d590611db9565b60405180910390fd5b6105e88383610b56565b505050565b6105fe6105f8610b4e565b82610c0f565b61063d576040517f08c379a000000000000000000000000000000000000000000000000000000000815260040161063490611e4b565b60405180910390fd5b610648838383610ca4565b505050565b6106688383836040518060200160405280600081525061087d565b505050565b6000806002600084815260200190815260200160002060009054906101000a900473ffffffffffffffffffffffffffffffffffffffff169050600073ffffffffffffffffffffffffffffffffffffffff168173ffffffffffffffffffffffffffffffffffffffff1603610715576040517f08c379a000000000000000000000000000000000000000000000000000000000815260040161070c90611eb7565b60405180910390fd5b80915050919050565b60008073ffffffffffffffffffffffffffffffffffffffff168273ffffffffffffffffffffffffffffffffffffffff160361078e576040517f08c379a000000000000000000000000000000000000000000000000000000000815260040161078590611f49565b60405180910390fd5b600360008373ffffffffffffffffffffffffffffffffffffffff1673ffffffffffffffffffffffffffffffffffffffff168152602001908152602001600020549050919050565b6060600180546107e490611c84565b80601f016020809104026020016040519081016040528092919081815260200182805461081090611c84565b801561085d5780601f106108325761010080835404028352916020019161085d565b820191906000526020600020905b81548152906001019060200180831161084057829003601f168201915b5050505050905090565b610879610872610b4e565b8383610f0a565b5050565b61088e610888610b4e565b83610c0f565b6108cd576040517f08c379a00000000000000000000000000000000000000000000000000000000081526004016108c490611e4b565b60405180910390fd5b6108d984848484611076565b50505050565b60606108ea826110d2565b610929576040517f08c379a000000000000000000000000000000000000000000000000000000000815260040161092090611fdb565b60405180910390fd5b60076000838152602001908152602001600020805461094790611c84565b80601f016020809104026020016040519081016040528092919081815260200182805461097390611c84565b80156109c05780601f10610995576101008083540402835291602001916109c0565b820191906000526020600020905b8154815290600101906020018083116109a357829003601f168201915b50505050509050919050565b60065481565b6109de3360065461113e565b6109ea6006548261115c565b600660008154809291906109fd9061202a565b919050555050565b6000600560008473ffffffffffffffffffffffffffffffffffffffff1673ffffffffffffffffffffffffffffffffffffffff16815260200190815260200160002060008373ffffffffffffffffffffffffffffffffffffffff1673ffffffffffffffffffffffffffffffffffffffff16815260200190815260200160002060009054906101000a900460ff16905092915050565b60007f01ffc9a7000000000000000000000000000000000000000000000000000000007bffffffffffffffffffffffffffffffffffffffffffffffffffffffff1916827bffffffffffffffffffffffffffffffffffffffffffffffffffffffff1916149050919050565b610b0c816110d2565b610b4b576040517f08c379a0000000000000000000000000000000000000000000000000000000008152600401610b4290611eb7565b60405180910390fd5b50565b600033905090565b816004600083815260200190815260200160002060006101000a81548173ffffffffffffffffffffffffffffffffffffffff021916908373ffffffffffffffffffffffffffffffffffffffff160217905550808273ffffffffffffffffffffffffffffffffffffffff16610bc98361066d565b73ffffffffffffffffffffffffffffffffffffffff167f8c5be1e5ebec7d5bd14f71427d1e84f3dd0314c0f7b2291e5b200ac8c7c3b92560405160405180910390a45050565b600080610c1b8361066d565b90508073ffffffffffffffffffffffffffffffffffffffff168473ffffffffffffffffffffffffffffffffffffffff161480610c5d5750610c5c8185610a05565b5b80610c9b57508373ffffffffffffffffffffffffffffffffffffffff16610c8384610490565b73ffffffffffffffffffffffffffffffffffffffff16145b91505092915050565b8273ffffffffffffffffffffffffffffffffffffffff16610cc48261066d565b73ffffffffffffffffffffffffffffffffffffffff1614610d1a576040517f08c379a0000000000000000000000000000000000000000000000000000000008152600401610d11906120e4565b60405180910390fd5b600073ffffffffffffffffffffffffffffffffffffffff168273ffffffffffffffffffffffffffffffffffffffff1603610d89576040517f08c379a0000000000000000000000000000000000000000000000000000000008152600401610d8090612176565b60405180910390fd5b610d948383836111c9565b610d9f600082610b56565b6001600360008573ffffffffffffffffffffffffffffffffffffffff1673ffffffffffffffffffffffffffffffffffffffff1681526020019081526020016000206000828254610def9190612196565b925050819055506001600360008473ffffffffffffffffffffffffffffffffffffffff1673ffffffffffffffffffffffffffffffffffffffff1681526020019081526020016000206000828254610e4691906121ca565b92505081905550816002600083815260200190815260200160002060006101000a81548173ffffffffffffffffffffffffffffffffffffffff021916908373ffffffffffffffffffffffffffffffffffffffff160217905550808273ffffffffffffffffffffffffffffffffffffffff168473ffffffffffffffffffffffffffffffffffffffff167fddf252ad1be2c89b69c2b068fc378daa952ba7f163c4a11628f55a4df523b3ef60405160405180910390a4610f058383836111ce565b505050565b8173ffffffffffffffffffffffffffffffffffffffff168373ffffffffffffffffffffffffffffffffffffffff1603610f78576040517f08c379a0000000000000000000000000000000000000000000000000000000008152600401610f6f9061224a565b60405180910390fd5b80600560008573ffffffffffffffffffffffffffffffffffffffff1673ffffffffffffffffffffffffffffffffffffffff16815260200190815260200160002060008473ffffffffffffffffffffffffffffffffffffffff1673ffffffffffffffffffffffffffffffffffffffff16815260200190815260200160002060006101000a81548160ff0219169083151502179055508173ffffffffffffffffffffffffffffffffffffffff168373ffffffffffffffffffffffffffffffffffffffff167f17307eab39ab6107e8899845ad3d59bd9653f200f220920489ca2b5937696c31836040516110699190611665565b60405180910390a3505050565b611081848484610ca4565b61108d848484846111d3565b6110cc576040517f08c379a00000000000000000000000000000000000000000000000000000000081526004016110c3906122dc565b60405180910390fd5b50505050565b60008073ffffffffffffffffffffffffffffffffffffffff166002600084815260200190815260200160002060009054906101000a900473ffffffffffffffffffffffffffffffffffffffff1673ffffffffffffffffffffffffffffffffffffffff1614159050919050565b61115882826040518060200160405280600081525061135a565b5050565b611165826110d2565b6111a4576040517f08c379a000000000000000000000000000000000000000000000000000000000815260040161119b90611fdb565b60405180910390fd5b806007600084815260200190815260200160002090816111c491906124a8565b505050565b505050565b505050565b60006111f48473ffffffffffffffffffffffffffffffffffffffff166113b5565b1561134d578373ffffffffffffffffffffffffffffffffffffffff1663150b7a0261121d610b4e565b8786866040518563ffffffff1660e01b815260040161123f94939291906125cf565b6020604051808303816000875af192505050801561127b57506040513d601f19601f820116820180604052508101906112789190612630565b60015b6112fd573d80600081146112ab576040519150601f19603f3d011682016040523d82523d6000602084013e6112b0565b606091505b5060008151036112f5576040517f08c379a00000000000000000000000000000000000000000000000000000000081526004016112ec906122dc565b60405180910390fd5b805181602001fd5b63150b7a0260e01b7bffffffffffffffffffffffffffffffffffffffffffffffffffffffff1916817bffffffffffffffffffffffffffffffffffffffffffffffffffffffff191614915050611352565b600190505b949350505050565b61136483836113d8565b61137160008484846111d3565b6113b0576040517f08c379a00000000000000000000000000000000000000000000000000000000081526004016113a7906122dc565b60405180910390fd5b505050565b6000808273ffffffffffffffffffffffffffffffffffffffff163b119050919050565b600073ffffffffffffffffffffffffffffffffffffffff168273ffffffffffffffffffffffffffffffffffffffff1603611447576040517f08c379a000000000000000000000000000000000000000000000000000000000815260040161143e906126a9565b60405180910390fd5b611450816110d2565b15611490576040517f08c379a000000000000000000000000000000000000000000000000000000000815260040161148790612715565b60405180910390fd5b61149c600083836111c9565b6001600360008473ffffffffffffffffffffffffffffffffffffffff1673ffffffffffffffffffffffffffffffffffffffff16815260200190815260200160002060008282546114ec91906121ca565b92505081905550816002600083815260200190815260200160002060006101000a81548173ffffffffffffffffffffffffffffffffffffffff021916908373ffffffffffffffffffffffffffffffffffffffff160217905550808273ffffffffffffffffffffffffffffffffffffffff16600073ffffffffffffffffffffffffffffffffffffffff167fddf252ad1be2c89b69c2b068fc378daa952ba7f163c4a11628f55a4df523b3ef60405160405180910390a46115ad600083836111ce565b5050565b6000604051905090565b600080fd5b600080fd5b60007fffffffff0000000000000000000000000000000000000000000000000000000082169050919050565b6115fa816115c5565b811461160557600080fd5b50565b600081359050611617816115f1565b92915050565b600060208284031215611633576116326115bb565b5b600061164184828501611608565b91505092915050565b60008115159050919050565b61165f8161164a565b82525050565b600060208201905061167a6000830184611656565b92915050565b600081519050919050565b600082825260208201905092915050565b60005b838110156116ba57808201518184015260208101905061169f565b60008484015250505050565b6000601f19601f8301169050919050565b60006116e282611680565b6116ec818561168b565b93506116fc81856020860161169c565b611705816116c6565b840191505092915050565b6000602082019050818103600083015261172a81846116d7565b905092915050565b6000819050919050565b61174581611732565b811461175057600080fd5b50565b6000813590506117628161173c565b92915050565b60006020828403121561177e5761177d6115bb565b5b600061178c84828501611753565b91505092915050565b600073ffffffffffffffffffffffffffffffffffffffff82169050919050565b60006117c082611795565b9050919050565b6117d0816117b5565b82525050565b60006020820190506117eb60008301846117c7565b92915050565b6117fa816117b5565b811461180557600080fd5b50565b600081359050611817816117f1565b92915050565b60008060408385031215611834576118336115bb565b5b600061184285828601611808565b925050602061185385828601611753565b9150509250929050565b600080600060608486031215611876576118756115bb565b5b600061188486828701611808565b935050602061189586828701611808565b92505060406118a686828701611753565b9150509250925092565b6000602082840312156118c6576118c56115bb565b5b60006118d484828501611808565b91505092915050565b6118e681611732565b82525050565b600060208201905061190160008301846118dd565b92915050565b6119108161164a565b811461191b57600080fd5b50565b60008135905061192d81611907565b92915050565b6000806040838503121561194a576119496115bb565b5b600061195885828601611808565b92505060206119698582860161191e565b9150509250929050565b600080fd5b600080fd5b7f4e487b7100000000000000000000000000000000000000000000000000000000600052604160045260246000fd5b6119b5826116c6565b810181811067ffffffffffffffff821117156119d4576119d361197d565b5b80604052505050565b60006119e76115b1565b90506119f382826119ac565b919050565b600067ffffffffffffffff821115611a1357611a1261197d565b5b611a1c826116c6565b9050602081019050919050565b82818337600083830152505050565b6000611a4b611a46846119f8565b6119dd565b905082815260208101848484011115611a6757611a66611978565b5b611a72848285611a29565b509392505050565b600082601f830112611a8f57611a8e611973565b5b8135611a9f848260208601611a38565b91505092915050565b60008060008060808587031215611ac257611ac16115bb565b5b6000611ad087828801611808565b9450506020611ae187828801611808565b9350506040611af287828801611753565b925050606085013567ffffffffffffffff811115611b1357611b126115c0565b5b611b1f87828801611a7a565b91505092959194509250565b600067ffffffffffffffff821115611b4657611b4561197d565b5b611b4f826116c6565b9050602081019050919050565b6000611b6f611b6a84611b2b565b6119dd565b905082815260208101848484011115611b8b57611b8a611978565b5b611b96848285611a29565b509392505050565b600082601f830112611bb357611bb2611973565b5b8135611bc3848260208601611b5c565b91505092915050565b600060208284031215611be257611be16115bb565b5b600082013567ffffffffffffffff811115611c0057611bff6115c0565b5b611c0c84828501611b9e565b91505092915050565b60008060408385031215611c2c57611c2b6115bb565b5b6000611c3a85828601611808565b9250506020611c4b85828601611808565b9150509250929050565b7f4e487b7100000000000000000000000000000000000000000000000000000000600052602260045260246000fd5b60006002820490506001821680611c9c57607f821691505b602082108103611caf57611cae611c55565b5b50919050565b7f4552433732313a20617070726f76616c20746f2063757272656e74206f776e6560008201527f7200000000000000000000000000000000000000000000000000000000000000602082015250565b6000611d1160218361168b565b9150611d1c82611cb5565b604082019050919050565b60006020820190508181036000830152611d4081611d04565b9050919050565b7f4552433732313a20617070726f76652063616c6c6572206973206e6f7420746f60008201527f6b656e206f776e6572206e6f7220617070726f76656420666f7220616c6c0000602082015250565b6000611da3603e8361168b565b9150611dae82611d47565b604082019050919050565b60006020820190508181036000830152611dd281611d96565b9050919050565b7f4552433732313a2063616c6c6572206973206e6f7420746f6b656e206f776e6560008201527f72206e6f7220617070726f766564000000000000000000000000000000000000602082015250565b6000611e35602e8361168b565b9150611e4082611dd9565b604082019050919050565b60006020820190508181036000830152611e6481611e28565b9050919050565b7f4552433732313a20696e76616c696420746f6b656e2049440000000000000000600082015250565b6000611ea160188361168b565b9150611eac82611e6b565b602082019050919050565b60006020820190508181036000830152611ed081611e94565b9050919050565b7f4552433732313a2061646472657373207a65726f206973206e6f74206120766160008201527f6c6964206f776e65720000000000000000000000000000000000000000000000602082015250565b6000611f3360298361168b565b9150611f3e82611ed7565b604082019050919050565b60006020820190508181036000830152611f6281611f26565b9050919050565b7f4552433732314d657461646174613a2055524920736574206f66206e6f6e657860008201527f697374656e7420746f6b656e0000000000000000000000000000000000000000602082015250565b6000611fc5602c8361168b565b9150611fd082611f69565b604082019050919050565b60006020820190508181036000830152611ff481611fb8565b9050919050565b7f4e487b7100000000000000000000000000000000000000000000000000000000600052601160045260246000fd5b600061203582611732565b91507fffffffffffffffffffffffffffffffffffffffffffffffffffffffffffffffff820361206757612066611ffb565b5b600182019050919050565b7f4552433732313a207472616e736665722066726f6d20696e636f72726563742060008201527f6f776e6572000000000000000000000000000000000000000000000000000000602082015250565b60006120ce60258361168b565b91506120d982612072565b604082019050919050565b600060208201905081810360008301526120fd816120c1565b9050919050565b7f4552433732313a207472616e7366657220746f20746865207a65726f2061646460008201527f7265737300000000000000000000000000000000000000000000000000000000602082015250565b600061216060248361168b565b915061216b82612104565b604082019050919050565b6000602082019050818103600083015261218f81612153565b9050919050565b60006121a182611732565b91506121ac83611732565b92508282039050818111156121c4576121c3611ffb565b5b92915050565b60006121d582611732565b91506121e083611732565b92508282019050808211156121f8576121f7611ffb565b5b92915050565b7f4552433732313a20617070726f766520746f2063616c6c657200000000000000600082015250565b600061223460198361168b565b915061223f826121fe565b602082019050919050565b6000602082019050818103600083015261226381612227565b9050919050565b7f4552433732313a207472616e7366657220746f206e6f6e20455243373231526560008201527f63656976657220696d706c656d656e7465720000000000000000000000000000602082015250565b60006122c660328361168b565b91506122d18261226a565b604082019050919050565b600060208201905081810360008301526122f5816122b9565b9050919050565b60008190508160005260206000209050919050565b60006020601f8301049050919050565b600082821b905092915050565b60006008830261235e7fffffffffffffffffffffffffffffffffffffffffffffffffffffffffffffffff82612321565b6123688683612321565b95508019841693508086168417925050509392505050565b6000819050919050565b60006123a56123a061239b84611732565b612380565b611732565b9050919050565b6000819050919050565b6123bf8361238a565b6123d36123cb826123ac565b84845461232e565b825550505050565b600090565b6123e86123db565b6123f38184846123b6565b505050565b5b818110156124175761240c6000826123e0565b6001810190506123f9565b5050565b601f82111561245c5761242d816122fc565b61243684612311565b81016020851015612445578190505b61245961245185612311565b8301826123f8565b50505b505050565b600082821c905092915050565b600061247f60001984600802612461565b1980831691505092915050565b6000612498838361246e565b9150826002028217905092915050565b6124b182611680565b67ffffffffffffffff8111156124ca576124c961197d565b5b6124d48254611c84565b6124df82828561241b565b600060209050601f8311600181146125125760008415612500578287015190505b61250a858261248c565b865550612572565b601f198416612520866122fc565b60005b8281101561254857848901518255600182019150602085019450602081019050612523565b868310156125655784890151612561601f89168261246e565b8355505b6001600288020188555050505b505050505050565b600081519050919050565b600082825260208201905092915050565b60006125a18261257a565b6125ab8185612585565b93506125bb81856020860161169c565b6125c4816116c6565b840191505092915050565b60006080820190506125e460008301876117c7565b6125f160208301866117c7565b6125fe60408301856118dd565b81810360608301526126108184612596565b905095945050505050565b60008151905061262a816115f1565b92915050565b600060208284031215612646576126456115bb565b5b60006126548482850161261b565b91505092915050565b7f4552433732313a206d696e7420746f20746865207a65726f2061646472657373600082015250565b600061269360208361168b565b915061269e8261265d565b602082019050919050565b600060208201905081810360008301526126c281612686565b9050919050565b7f4552433732313a20746f6b656e20616c7265616479206d696e74656400000000600082015250565b60006126ff601c8361168b565b915061270a826126c9565b602082019050919050565b6000602082019050818103600083015261272e816126f2565b905091905056fea2646970667358221220db006b3e13ef914d3da0344cd8cf0929cf71b26d27713719de1cf59c1fe763b564736f6c63430008110033",
  "linkReferences": {},
  "deployedLinkReferences": {}
}